{
  "transactions": [
    {
      "hash": "0xeb784210b9a7685b6034f7f82dc1ee4d32583cd019db67f37939a794fa6d3a85",
      "transactionType": "CALL",
      "contractName": null,
      "contractAddress": "0xe22ef50d4fd328296e2d366b523c2348b6b319d0",
      "function": "transfer(address,uint256)",
      "arguments": [
        "0x348d62c4134be9B03E324B1d1A981627EAF47695",
        "120000000000000000000000000"
      ],
      "transaction": {
        "from": "0x20f7acfc15a4eb3142f6d1ddfb219a660541484e",
        "to": "0xe22ef50d4fd328296e2d366b523c2348b6b319d0",
        "gas": "0x142da",
        "value": "0x0",
        "input": "0xa9059cbb000000000000000000000000348d62c4134be9b03e324b1d1a981627eaf476950000000000000000000000000000000000000000006342fd08f00f6378000000",
        "nonce": "0x49",
        "chainId": "0x38"
      },
      "additionalContracts": [],
      "isFixedGasLimit": false
    },
    {
      "hash": "0xf5be9e877ee1085dc97947cbc39f9a5358307c6452b8762108ff4ed3ce822526",
      "transactionType": "CALL",
      "contractName": null,
      "contractAddress": "0xe22ef50d4fd328296e2d366b523c2348b6b319d0",
      "function": "transferOwnership(address)",
      "arguments": [
        "0x348d62c4134be9B03E324B1d1A981627EAF47695"
      ],
      "transaction": {
        "from": "0x20f7acfc15a4eb3142f6d1ddfb219a660541484e",
        "to": "0xe22ef50d4fd328296e2d366b523c2348b6b319d0",
        "gas": "0x9c9f",
        "value": "0x0",
        "input": "0xf2fde38b000000000000000000000000348d62c4134be9b03e324b1d1a981627eaf47695",
        "nonce": "0x4a",
        "chainId": "0x38"
      },
      "additionalContracts": [],
      "isFixedGasLimit": false
    }
  ],
  "receipts": [
    {
      "status": "0x1",
      "cumulativeGasUsed": "0x846252",
      "logs": [
        {
          "address": "0xe22ef50d4fd328296e2d366b523c2348b6b319d0",
          "topics": [
            "0xddf252ad1be2c89b69c2b068fc378daa952ba7f163c4a11628f55a4df523b3ef",
            "0x00000000000000000000000020f7acfc15a4eb3142f6d1ddfb219a660541484e",
            "0x000000000000000000000000348d62c4134be9b03e324b1d1a981627eaf47695"
          ],
          "data": "0x0000000000000000000000000000000000000000006342fd08f00f6378000000",
          "blockHash": "0xd93dd236b239ae67c2f2f202f19db03a8635c50500b059be6c6e437af3120015",
          "blockNumber": "0x4ad8689",
          "blockTimestamp": "0x697df2ef",
          "transactionHash": "0xeb784210b9a7685b6034f7f82dc1ee4d32583cd019db67f37939a794fa6d3a85",
          "transactionIndex": "0x32",
          "logIndex": "0x120",
          "removed": false
        }
      ],
      "logsBloom": "0x00000000000000000040000000000000000002000000000000000000000000000000000000000000000000000000000000000000400000000000000000000000000000000000000000000008000000000000000000000000002000000000000000000000000000000000000000000020000000000000000000000010000000000000001000000000000000000000000000000000000000000000000000000000000000000000000000000000000000000000000000000000000000000000000000000002000000000500000000000000000000000000000000000000000000000000000200000000000000000000000000000000000000000000000000000000",
      "type": "0x2",
      "transactionHash": "0xeb784210b9a7685b6034f7f82dc1ee4d32583cd019db67f37939a794fa6d3a85",
      "transactionIndex": "0x32",
      "blockHash": "0xd93dd236b239ae67c2f2f202f19db03a8635c50500b059be6c6e437af3120015",
      "blockNumber": "0x4ad8689",
      "gasUsed": "0xdcc1",
      "effectiveGasPrice": "0x2faf080",
      "from": "0x20f7acfc15a4eb3142f6d1ddfb219a660541484e",
      "to": "0xe22ef50d4fd328296e2d366b523c2348b6b319d0",
      "contractAddress": null
    },
    {
      "status": "0x1",
      "cumulativeGasUsed": "0x194e7d",
      "logs": [
        {
          "address": "0xe22ef50d4fd328296e2d366b523c2348b6b319d0",
          "topics": [
            "0x8be0079c531659141344cd1fd0a4f28419497f9722a3daafe3b4186f6b6457e0",
            "0x00000000000000000000000020f7acfc15a4eb3142f6d1ddfb219a660541484e",
            "0x000000000000000000000000348d62c4134be9b03e324b1d1a981627eaf47695"
          ],
          "data": "0x",
          "blockHash": "0xa1ef76b4961fc7333d5a45f6067187a2de334d6e659484eec5318086b3970d4a",
          "blockNumber": "0x4ad868c",
          "blockTimestamp": "0x697df2f1",
          "transactionHash": "0xf5be9e877ee1085dc97947cbc39f9a5358307c6452b8762108ff4ed3ce822526",
          "transactionIndex": "0xc",
          "logIndex": "0x5a",
          "removed": false
        }
      ],
      "logsBloom": "0x00000000000000000040000000000000000002000000000000800000000000000000000000000000000000000000000000000000400000000000000000000000000000000000000000000000000000000001000000000000002000000000000000000000000000000000000000000020000000000000000000000000000000400000001000000000000000000000000000000000000000000000000000000000000000000000000000000000000000000000000000000000000000000000000000000000000000000500000000000000000000000000000000000000000000000000000200000000000000000000000000000000000000000000000000000000",
      "type": "0x2",
      "transactionHash": "0xf5be9e877ee1085dc97947cbc39f9a5358307c6452b8762108ff4ed3ce822526",
      "transactionIndex": "0xc",
      "blockHash": "0xa1ef76b4961fc7333d5a45f6067187a2de334d6e659484eec5318086b3970d4a",
      "blockNumber": "0x4ad868c",
      "gasUsed": "0x7165",
      "effectiveGasPrice": "0x2faf080",
      "from": "0x20f7acfc15a4eb3142f6d1ddfb219a660541484e",
      "to": "0xe22ef50d4fd328296e2d366b523c2348b6b319d0",
      "contractAddress": null
    }
  ],
  "libraries": [],
  "pending": [],
  "returns": {},
  "timestamp": 1769861874549,
  "chain": 56,
  "commit": "45c3b22"
}