{
  "transactions": [
    {
      "hash": "0x9fd888dbe365babbf24245863203f742652525bf570a655915923d02a52b861b",
      "transactionType": "CALL",
      "contractName": "MC",
      "contractAddress": "0xb531613381cce69dacdfe3693570f8cbf8bda81f",
      "function": "transfer(address,uint256)",
      "arguments": [
        "0x348d62c4134be9B03E324B1d1A981627EAF47695",
        "120000000000000000000000000"
      ],
      "transaction": {
        "from": "0x130151afa86cd285223f95bbc1e5aa99eef8b7f2",
        "to": "0xb531613381cce69dacdfe3693570f8cbf8bda81f",
        "gas": "0x142b9",
        "value": "0x0",
        "input": "0xa9059cbb000000000000000000000000348d62c4134be9b03e324b1d1a981627eaf476950000000000000000000000000000000000000000006342fd08f00f6378000000",
        "nonce": "0x1654",
        "chainId": "0x38"
      },
      "additionalContracts": [],
      "isFixedGasLimit": false
    },
    {
      "hash": "0x9dd8b33ed6b1552886a533940cf7352e1c7bebc93924679bbc197ea238349393",
      "transactionType": "CALL",
      "contractName": "MC",
      "contractAddress": "0xb531613381cce69dacdfe3693570f8cbf8bda81f",
      "function": "transferOwnership(address)",
      "arguments": [
        "0x348d62c4134be9B03E324B1d1A981627EAF47695"
      ],
      "transaction": {
        "from": "0x130151afa86cd285223f95bbc1e5aa99eef8b7f2",
        "to": "0xb531613381cce69dacdfe3693570f8cbf8bda81f",
        "gas": "0x9c9f",
        "value": "0x0",
        "input": "0xf2fde38b000000000000000000000000348d62c4134be9b03e324b1d1a981627eaf47695",
        "nonce": "0x1655",
        "chainId": "0x38"
      },
      "additionalContracts": [],
      "isFixedGasLimit": false
    }
  ],
  "receipts": [
    {
      "status": "0x1",
      "cumulativeGasUsed": "0x75ce4f",
      "logs": [
        {
          "address": "0xb531613381cce69dacdfe3693570f8cbf8bda81f",
          "topics": [
            "0xddf252ad1be2c89b69c2b068fc378daa952ba7f163c4a11628f55a4df523b3ef",
            "0x000000000000000000000000130151afa86cd285223f95bbc1e5aa99eef8b7f2",
            "0x000000000000000000000000348d62c4134be9b03e324b1d1a981627eaf47695"
          ],
          "data": "0x0000000000000000000000000000000000000000006342fd08f00f6378000000",
          "blockHash": "0xb8d3774fdb4c2c86f82e39b89f931e5e72a62ff6cc062bc15d52156a6d1c9895",
          "blockNumber": "0x4c75d72",
          "blockTimestamp": "0x69899470",
          "transactionHash": "0x9fd888dbe365babbf24245863203f742652525bf570a655915923d02a52b861b",
          "transactionIndex": "0x44",
          "logIndex": "0xcc",
          "removed": false
        }
      ],
      "logsBloom": "0x00000000000000000000000000000000000002000000000000000000000000000000000000000000000000000000000000000000400000000000000000000000000001000000000000000008000000000000000000000080002000000000000000000000000000000000000000000000000000000000000000000010000000000000000000000000000000000000000000000000000000000000000000000000000000000000000001000000000000000000000000000008000000000000000000000002000000000000000000000000000000000000000000000000000000000000000000000000000000000000000000000088000000000000000000000000",
      "type": "0x2",
      "transactionHash": "0x9fd888dbe365babbf24245863203f742652525bf570a655915923d02a52b861b",
      "transactionIndex": "0x44",
      "blockHash": "0xb8d3774fdb4c2c86f82e39b89f931e5e72a62ff6cc062bc15d52156a6d1c9895",
      "blockNumber": "0x4c75d72",
      "gasUsed": "0xdcab",
      "effectiveGasPrice": "0x2faf080",
      "from": "0x130151afa86cd285223f95bbc1e5aa99eef8b7f2",
      "to": "0xb531613381cce69dacdfe3693570f8cbf8bda81f",
      "contractAddress": null
    },
    {
      "status": "0x1",
      "cumulativeGasUsed": "0x86d7bb",
      "logs": [
        {
          "address": "0xb531613381cce69dacdfe3693570f8cbf8bda81f",
          "topics": [
            "0x8be0079c531659141344cd1fd0a4f28419497f9722a3daafe3b4186f6b6457e0",
            "0x000000000000000000000000130151afa86cd285223f95bbc1e5aa99eef8b7f2",
            "0x000000000000000000000000348d62c4134be9b03e324b1d1a981627eaf47695"
          ],
          "data": "0x",
          "blockHash": "0x788e154bf107cdece3c3b5b6e3a77bed4fafbfc4cf7f605669bf45aebe27bf44",
          "blockNumber": "0x4c75d76",
          "blockTimestamp": "0x69899472",
          "transactionHash": "0x9dd8b33ed6b1552886a533940cf7352e1c7bebc93924679bbc197ea238349393",
          "transactionIndex": "0x37",
          "logIndex": "0x104",
          "removed": false
        }
      ],
      "logsBloom": "0x00000000000000000000000000000000000002000000000000800000000000000000000000000000000000000000000000000000400000000000000000000000000001000000000000000000000000000001000000000080002000000000000000000000000000000000000000000000000000000000000000000000000000400000000000000000000000000000000000000000000000000000000000000000000000000000000001000000000000000000000000000008000000000000000000000000000000000000000000000000000000000000000000000000000000000000000000000000000000000000000000000088000000000000000000000000",
      "type": "0x2",
      "transactionHash": "0x9dd8b33ed6b1552886a533940cf7352e1c7bebc93924679bbc197ea238349393",
      "transactionIndex": "0x37",
      "blockHash": "0x788e154bf107cdece3c3b5b6e3a77bed4fafbfc4cf7f605669bf45aebe27bf44",
      "blockNumber": "0x4c75d76",
      "gasUsed": "0x7165",
      "effectiveGasPrice": "0x2faf080",
      "from": "0x130151afa86cd285223f95bbc1e5aa99eef8b7f2",
      "to": "0xb531613381cce69dacdfe3693570f8cbf8bda81f",
      "contractAddress": null
    }
  ],
  "libraries": [],
  "pending": [],
  "returns": {},
  "timestamp": 1770624115972,
  "chain": 56,
  "commit": "890bf99"
}