{
  "transactions": [
    {
      "hash": "0x935d5c44bd7fa20181970dc5639ac17e4780de69c46013d95f7a621f3d4c0222",
      "transactionType": "CALL",
      "contractName": "MC",
      "contractAddress": "0x8e7571ccda1045c548d85229bc444de5615ec5f4",
      "function": "transfer(address,uint256)",
      "arguments": [
        "0x348d62c4134be9B03E324B1d1A981627EAF47695",
        "120000000000000000000000000"
      ],
      "transaction": {
        "from": "0x20f7acfc15a4eb3142f6d1ddfb219a660541484e",
        "to": "0x8e7571ccda1045c548d85229bc444de5615ec5f4",
        "gas": "0x142b9",
        "value": "0x0",
        "input": "0xa9059cbb000000000000000000000000348d62c4134be9b03e324b1d1a981627eaf476950000000000000000000000000000000000000000006342fd08f00f6378000000",
        "nonce": "0x4e",
        "chainId": "0x38"
      },
      "additionalContracts": [],
      "isFixedGasLimit": false
    },
    {
      "hash": "0x2d72a69e28453b0542f902f68a8df9e123b39306420c32dd1ba8d4285ca11381",
      "transactionType": "CALL",
      "contractName": "MC",
      "contractAddress": "0x8e7571ccda1045c548d85229bc444de5615ec5f4",
      "function": "transferOwnership(address)",
      "arguments": [
        "0x348d62c4134be9B03E324B1d1A981627EAF47695"
      ],
      "transaction": {
        "from": "0x20f7acfc15a4eb3142f6d1ddfb219a660541484e",
        "to": "0x8e7571ccda1045c548d85229bc444de5615ec5f4",
        "gas": "0x9c9f",
        "value": "0x0",
        "input": "0xf2fde38b000000000000000000000000348d62c4134be9b03e324b1d1a981627eaf47695",
        "nonce": "0x4f",
        "chainId": "0x38"
      },
      "additionalContracts": [],
      "isFixedGasLimit": false
    }
  ],
  "receipts": [
    {
      "status": "0x1",
      "cumulativeGasUsed": "0xc9997c",
      "logs": [
        {
          "address": "0x8e7571ccda1045c548d85229bc444de5615ec5f4",
          "topics": [
            "0xddf252ad1be2c89b69c2b068fc378daa952ba7f163c4a11628f55a4df523b3ef",
            "0x00000000000000000000000020f7acfc15a4eb3142f6d1ddfb219a660541484e",
            "0x000000000000000000000000348d62c4134be9b03e324b1d1a981627eaf47695"
          ],
          "data": "0x0000000000000000000000000000000000000000006342fd08f00f6378000000",
          "blockHash": "0x8e82ac073ee9526c81e8775d365cbf473b4fcfcfac6ba86925740bc5632d67b8",
          "blockNumber": "0x4b38bb9",
          "blockTimestamp": "0x6980a896",
          "transactionHash": "0x935d5c44bd7fa20181970dc5639ac17e4780de69c46013d95f7a621f3d4c0222",
          "transactionIndex": "0x4b",
          "logIndex": "0x180",
          "removed": false
        }
      ],
      "logsBloom": "0x00000000000000000040000000000000000002000000000000000000000000000000000000000000000000000000000000000000400000000000000000000000000000000000000000000008000000000000000000008000002000000000000000000000000000000000000000000020000000000000000000000010000002000000000000000000000000000000000000000000000000000000000000000000000000000000000000000000000000000000000000000000000000000000000000000002000000000400000000000000000000000000000000000000000000000000000000000000000000000000000000000000000010000000000000000000",
      "type": "0x2",
      "transactionHash": "0x935d5c44bd7fa20181970dc5639ac17e4780de69c46013d95f7a621f3d4c0222",
      "transactionIndex": "0x4b",
      "blockHash": "0x8e82ac073ee9526c81e8775d365cbf473b4fcfcfac6ba86925740bc5632d67b8",
      "blockNumber": "0x4b38bb9",
      "gasUsed": "0xdcab",
      "effectiveGasPrice": "0x2faf080",
      "from": "0x20f7acfc15a4eb3142f6d1ddfb219a660541484e",
      "to": "0x8e7571ccda1045c548d85229bc444de5615ec5f4",
      "contractAddress": null
    },
    {
      "status": "0x1",
      "cumulativeGasUsed": "0xbd7e97",
      "logs": [
        {
          "address": "0x8e7571ccda1045c548d85229bc444de5615ec5f4",
          "topics": [
            "0x8be0079c531659141344cd1fd0a4f28419497f9722a3daafe3b4186f6b6457e0",
            "0x00000000000000000000000020f7acfc15a4eb3142f6d1ddfb219a660541484e",
            "0x000000000000000000000000348d62c4134be9b03e324b1d1a981627eaf47695"
          ],
          "data": "0x",
          "blockHash": "0x2ea02e8d9d9319da15a8c6ba6402aa827e812b88b574a841ea870a8258000b31",
          "blockNumber": "0x4b38bbc",
          "blockTimestamp": "0x6980a897",
          "transactionHash": "0x2d72a69e28453b0542f902f68a8df9e123b39306420c32dd1ba8d4285ca11381",
          "transactionIndex": "0x45",
          "logIndex": "0x172",
          "removed": false
        }
      ],
      "logsBloom": "0x00000000000000000040000000000000000002000000000000800000000000000000000000000000000000000000000000000000400000000000000000000000000000000000000000000000000000000001000000008000002000000000000000000000000000000000000000000020000000000000000000000000000002400000000000000000000000000000000000000000000000000000000000000000000000000000000000000000000000000000000000000000000000000000000000000000000000000400000000000000000000000000000000000000000000000000000000000000000000000000000000000000000010000000000000000000",
      "type": "0x2",
      "transactionHash": "0x2d72a69e28453b0542f902f68a8df9e123b39306420c32dd1ba8d4285ca11381",
      "transactionIndex": "0x45",
      "blockHash": "0x2ea02e8d9d9319da15a8c6ba6402aa827e812b88b574a841ea870a8258000b31",
      "blockNumber": "0x4b38bbc",
      "gasUsed": "0x7165",
      "effectiveGasPrice": "0x2faf080",
      "from": "0x20f7acfc15a4eb3142f6d1ddfb219a660541484e",
      "to": "0x8e7571ccda1045c548d85229bc444de5615ec5f4",
      "contractAddress": null
    }
  ],
  "libraries": [],
  "pending": [],
  "returns": {},
  "timestamp": 1770039450135,
  "chain": 56,
  "commit": "54fa00d"
}