{
  "transactions": [
    {
      "hash": "0xbd9e8aabf6c035b69cb89104967b1256432bc4cf7ba2b0ffb901c1ec7901da9a",
      "transactionType": "CALL",
      "contractName": "MC",
      "contractAddress": "0xcd0c229a02a9fbcbb6a19347a48d004c46d7e4d1",
      "function": "transferOwnership(address)",
      "arguments": [
        "0x348d62c4134be9B03E324B1d1A981627EAF47695"
      ],
      "transaction": {
        "from": "0x20f7acfc15a4eb3142f6d1ddfb219a660541484e",
        "to": "0xcd0c229a02a9fbcbb6a19347a48d004c46d7e4d1",
        "gas": "0x9c9f",
        "value": "0x0",
        "input": "0xf2fde38b000000000000000000000000348d62c4134be9b03e324b1d1a981627eaf47695",
        "nonce": "0x45",
        "chainId": "0x38"
      },
      "additionalContracts": [],
      "isFixedGasLimit": false
    }
  ],
  "receipts": [
    {
      "status": "0x1",
      "cumulativeGasUsed": "0xac15ac",
      "logs": [
        {
          "address": "0xcd0c229a02a9fbcbb6a19347a48d004c46d7e4d1",
          "topics": [
            "0x8be0079c531659141344cd1fd0a4f28419497f9722a3daafe3b4186f6b6457e0",
            "0x00000000000000000000000020f7acfc15a4eb3142f6d1ddfb219a660541484e",
            "0x000000000000000000000000348d62c4134be9b03e324b1d1a981627eaf47695"
          ],
          "data": "0x",
          "blockHash": "0x8d6897483fbd8f58e5553a72cc83ecbc35eb4fa3231c6b0dbccd002320d16e0e",
          "blockNumber": "0x49e4c35",
          "blockTimestamp": "0x697716e5",
          "transactionHash": "0xbd9e8aabf6c035b69cb89104967b1256432bc4cf7ba2b0ffb901c1ec7901da9a",
          "transactionIndex": "0x57",
          "logIndex": "0x175",
          "removed": false
        }
      ],
      "logsBloom": "0x00000000000000000040000000000000000002000000000000800000000000000000000000000000000000000000000000000000400000000000000000000000000000000000000000000000000000000001000000000000002200000000000000000000000000000000000000000020000000000000000000000000100000400000000000000000000000000000000000000000000000000000000000000000000000000000010000000000000000000000000000000000000000000000000000000000000000000400000000000000000000000000000000000000000000000000000000000000000000000000000000000000000000000000000000000000",
      "type": "0x2",
      "transactionHash": "0xbd9e8aabf6c035b69cb89104967b1256432bc4cf7ba2b0ffb901c1ec7901da9a",
      "transactionIndex": "0x57",
      "blockHash": "0x8d6897483fbd8f58e5553a72cc83ecbc35eb4fa3231c6b0dbccd002320d16e0e",
      "blockNumber": "0x49e4c35",
      "gasUsed": "0x7165",
      "effectiveGasPrice": "0x2faf080",
      "from": "0x20f7acfc15a4eb3142f6d1ddfb219a660541484e",
      "to": "0xcd0c229a02a9fbcbb6a19347a48d004c46d7e4d1",
      "contractAddress": null
    }
  ],
  "libraries": [],
  "pending": [],
  "returns": {},
  "timestamp": 1769412326814,
  "chain": 56,
  "commit": "bdedb42"
}