{
  "transactions": [
    {
      "hash": "0x23d1b494f630bd8ca965ccb01f5594d023729147f5a2e2f330893934b8fe5fb4",
      "transactionType": "CALL",
      "contractName": null,
      "contractAddress": "0xa8b15834bc93e2c2b3a012b359824e795b9724e0",
      "function": "setTaxWallets(address,address,address)",
      "arguments": [
        "0x1950448f95E80f9CA430FC68976C5e671f729475",
        "0x8082334264f05ca9E45C13db1D825c4Cc413Ccd4",
        "0xFb32321Fd69c1E78b0457B3Ba0C3d72D9C113F84"
      ],
      "transaction": {
        "from": "0x130151afa86cd285223f95bbc1e5aa99eef8b7f2",
        "to": "0xa8b15834bc93e2c2b3a012b359824e795b9724e0",
        "gas": "0xe6c6",
        "value": "0x0",
        "input": "0x9fda05810000000000000000000000001950448f95e80f9ca430fc68976c5e671f7294750000000000000000000000008082334264f05ca9e45c13db1d825c4cc413ccd4000000000000000000000000fb32321fd69c1e78b0457b3ba0c3d72d9c113f84",
        "nonce": "0x1c69",
        "chainId": "0x38"
      },
      "additionalContracts": [],
      "isFixedGasLimit": false
    },
    {
      "hash": "0x8cc411734c1c50232bf95ddb65033c6c73e8a7335fb02272be008e45ec562be8",
      "transactionType": "CALL",
      "contractName": null,
      "contractAddress": "0xa8b15834bc93e2c2b3a012b359824e795b9724e0",
      "function": "transferOwnership(address)",
      "arguments": [
        "0x348d62c4134be9B03E324B1d1A981627EAF47695"
      ],
      "transaction": {
        "from": "0x130151afa86cd285223f95bbc1e5aa99eef8b7f2",
        "to": "0xa8b15834bc93e2c2b3a012b359824e795b9724e0",
        "gas": "0x9cb9",
        "value": "0x0",
        "input": "0xf2fde38b000000000000000000000000348d62c4134be9b03e324b1d1a981627eaf47695",
        "nonce": "0x1c6a",
        "chainId": "0x38"
      },
      "additionalContracts": [],
      "isFixedGasLimit": false
    }
  ],
  "receipts": [
    {
      "status": "0x1",
      "cumulativeGasUsed": "0x7c9e95",
      "logs": [
        {
          "address": "0xa8b15834bc93e2c2b3a012b359824e795b9724e0",
          "topics": [
            "0xf55973b6505a9ad5670b7bf8e016057ca44ff48904c628dba147e8ed69331d26"
          ],
          "data": "0x0000000000000000000000001950448f95e80f9ca430fc68976c5e671f7294750000000000000000000000008082334264f05ca9e45c13db1d825c4cc413ccd4000000000000000000000000fb32321fd69c1e78b0457b3ba0c3d72d9c113f84",
          "blockHash": "0x8d21bf7d693c38c9cd475e70d8034f2e3c739335202e09347ef814bc8b5fb97a",
          "blockNumber": "0x5049863",
          "blockTimestamp": "0x69a523e5",
          "transactionHash": "0x23d1b494f630bd8ca965ccb01f5594d023729147f5a2e2f330893934b8fe5fb4",
          "transactionIndex": "0x3c",
          "logIndex": "0xe6",
          "removed": false
        }
      ],
      "logsBloom": "0x00000000000000020000000000000000000000000000000000000000000000000000100000000000000000000000000000000000000000000040000000000000000000000000000000000000000000000000000000000000000000000000000000000000000000000000000000000000000000000000000000000000000000000000000000000000000000000000000010000000000000000000001000000000000000000000000000000000000000000000000000000000000000000000000000000000000000000000000000000000100000000000000000000000000000000000000000000000000000000000000000000000000000000000000000000000",
      "type": "0x2",
      "transactionHash": "0x23d1b494f630bd8ca965ccb01f5594d023729147f5a2e2f330893934b8fe5fb4",
      "transactionIndex": "0x3c",
      "blockHash": "0x8d21bf7d693c38c9cd475e70d8034f2e3c739335202e09347ef814bc8b5fb97a",
      "blockNumber": "0x5049863",
      "gasUsed": "0xa714",
      "effectiveGasPrice": "0x2faf080",
      "from": "0x130151afa86cd285223f95bbc1e5aa99eef8b7f2",
      "to": "0xa8b15834bc93e2c2b3a012b359824e795b9724e0",
      "contractAddress": null
    },
    {
      "status": "0x1",
      "cumulativeGasUsed": "0xa9086a",
      "logs": [
        {
          "address": "0xa8b15834bc93e2c2b3a012b359824e795b9724e0",
          "topics": [
            "0x8be0079c531659141344cd1fd0a4f28419497f9722a3daafe3b4186f6b6457e0",
            "0x000000000000000000000000130151afa86cd285223f95bbc1e5aa99eef8b7f2",
            "0x000000000000000000000000348d62c4134be9b03e324b1d1a981627eaf47695"
          ],
          "data": "0x",
          "blockHash": "0xf677b11864704904845eda2863aca3f660631a8b8979ffcd5d78f825cbb0f1fc",
          "blockNumber": "0x5049866",
          "blockTimestamp": "0x69a523e6",
          "transactionHash": "0x8cc411734c1c50232bf95ddb65033c6c73e8a7335fb02272be008e45ec562be8",
          "transactionIndex": "0x5c",
          "logIndex": "0x148",
          "removed": false
        }
      ],
      "logsBloom": "0x00000000000000000000000000000000000002000000000000800000000000000000000000000000000000000000000000000000400000000040000000000000000001000000000000000000000000000001000000000000002000000000000000000000000000000000000000000000000000000000000000000000000000400000000000000000000000000000000010000000000000000000001000000000000000000000000000000000000000000000000000000000000000000000000000000000000000000000000000000000000000000000000000000000000000000000000000000000000000000000000000000088000000000000000000000000",
      "type": "0x2",
      "transactionHash": "0x8cc411734c1c50232bf95ddb65033c6c73e8a7335fb02272be008e45ec562be8",
      "transactionIndex": "0x5c",
      "blockHash": "0xf677b11864704904845eda2863aca3f660631a8b8979ffcd5d78f825cbb0f1fc",
      "blockNumber": "0x5049866",
      "gasUsed": "0x7178",
      "effectiveGasPrice": "0x2faf080",
      "from": "0x130151afa86cd285223f95bbc1e5aa99eef8b7f2",
      "to": "0xa8b15834bc93e2c2b3a012b359824e795b9724e0",
      "contractAddress": null
    }
  ],
  "libraries": [],
  "pending": [],
  "returns": {},
  "timestamp": 1772430312528,
  "chain": 56,
  "commit": "df3360d"
}