{
  "transactions": [
    {
      "hash": "0x8380e380fd4879bcc3ea0f6fa0ca0a27b01657b823a29c249a5872ef5a6d6975",
      "transactionType": "CALL",
      "contractName": null,
      "contractAddress": "0x61cefc14ef104f149bf7c80451685f88be7c14d2",
      "function": "setSwapConfig(address,address[])",
      "arguments": [
        "0x10ED43C718714eb63d5aA57B78B54704E256024E",
        "[0x55d398326f99059fF775485246999027B3197955, 0x54261774905f3e6E9718f2ABb10ed6555cae308a]"
      ],
      "transaction": {
        "from": "0x130151afa86cd285223f95bbc1e5aa99eef8b7f2",
        "to": "0x61cefc14ef104f149bf7c80451685f88be7c14d2",
        "gas": "0xf5cd",
        "value": "0x0",
        "input": "0x30b376de00000000000000000000000010ed43c718714eb63d5aa57b78b54704e256024e0000000000000000000000000000000000000000000000000000000000000040000000000000000000000000000000000000000000000000000000000000000200000000000000000000000055d398326f99059ff775485246999027b319795500000000000000000000000054261774905f3e6e9718f2abb10ed6555cae308a",
        "nonce": "0x1569",
        "chainId": "0x38"
      },
      "additionalContracts": [],
      "isFixedGasLimit": false
    }
  ],
  "receipts": [
    {
      "status": "0x1",
      "cumulativeGasUsed": "0x9c5d1f",
      "logs": [],
      "logsBloom": "0x00000000000000000000000000000000000000000000000000000000000000000000000000000000000000000000000000000000000000000000000000000000000000000000000000000000000000000000000000000000000000000000000000000000000000000000000000000000000000000000000000000000000000000000000000000000000000000000000000000000000000000000000000000000000000000000000000000000000000000000000000000000000000000000000000000000000000000000000000000000000000000000000000000000000000000000000000000000000000000000000000000000000000000000000000000000",
      "type": "0x2",
      "transactionHash": "0x8380e380fd4879bcc3ea0f6fa0ca0a27b01657b823a29c249a5872ef5a6d6975",
      "transactionIndex": "0x54",
      "blockHash": "0xa3c21805fa74af3696ce95be7fb1b3f8201cc739377d627954926f7a23c338f7",
      "blockNumber": "0x4bf7b7c",
      "gasUsed": "0xa812",
      "effectiveGasPrice": "0x2faf080",
      "from": "0x130151afa86cd285223f95bbc1e5aa99eef8b7f2",
      "to": "0x61cefc14ef104f149bf7c80451685f88be7c14d2",
      "contractAddress": null
    }
  ],
  "libraries": [],
  "pending": [],
  "returns": {},
  "timestamp": 1770391603506,
  "chain": 56,
  "commit": "f3ffc72"
}