{
  "transactions": [
    {
      "hash": "0x582669ea0dec0467bf4cd19607e58b5e4aca04726045f144ae43198bf0d9bd96",
      "transactionType": "CALL",
      "contractName": null,
      "contractAddress": "0x61cefc14ef104f149bf7c80451685f88be7c14d2",
      "function": "setFeeReceiver(address)",
      "arguments": [
        "0xeEeafD22bF0070CFC434F6A50ca657D46bA3fAa6"
      ],
      "transaction": {
        "from": "0x130151afa86cd285223f95bbc1e5aa99eef8b7f2",
        "to": "0x61cefc14ef104f149bf7c80451685f88be7c14d2",
        "gas": "0x116b0",
        "value": "0x0",
        "input": "0xefdcd974000000000000000000000000eeeafd22bf0070cfc434f6a50ca657d46ba3faa6",
        "nonce": "0x1563",
        "chainId": "0x38"
      },
      "additionalContracts": [],
      "isFixedGasLimit": false
    },
    {
      "hash": "0x69272fa4534cb64d27e67ece604269f2b29dae75ebccf1e11089146aabc32b1a",
      "transactionType": "CALL",
      "contractName": null,
      "contractAddress": "0x61cefc14ef104f149bf7c80451685f88be7c14d2",
      "function": "setSwapConfig(address,address[])",
      "arguments": [
        "0x10ED43C718714eb63d5aA57B78B54704E256024E",
        "[0x55d398326f99059fF775485246999027B3197955, 0x0c7d5a9A13828d0F6cEc06FBb60c1351842afb62]"
      ],
      "transaction": {
        "from": "0x130151afa86cd285223f95bbc1e5aa99eef8b7f2",
        "to": "0x61cefc14ef104f149bf7c80451685f88be7c14d2",
        "gas": "0x2ac8d",
        "value": "0x0",
        "input": "0x30b376de00000000000000000000000010ed43c718714eb63d5aa57b78b54704e256024e0000000000000000000000000000000000000000000000000000000000000040000000000000000000000000000000000000000000000000000000000000000200000000000000000000000055d398326f99059ff775485246999027b31979550000000000000000000000000c7d5a9a13828d0f6cec06fbb60c1351842afb62",
        "nonce": "0x1564",
        "chainId": "0x38"
      },
      "additionalContracts": [],
      "isFixedGasLimit": false
    }
  ],
  "receipts": [
    {
      "status": "0x1",
      "cumulativeGasUsed": "0x1268639",
      "logs": [],
      "logsBloom": "0x00000000000000000000000000000000000000000000000000000000000000000000000000000000000000000000000000000000000000000000000000000000000000000000000000000000000000000000000000000000000000000000000000000000000000000000000000000000000000000000000000000000000000000000000000000000000000000000000000000000000000000000000000000000000000000000000000000000000000000000000000000000000000000000000000000000000000000000000000000000000000000000000000000000000000000000000000000000000000000000000000000000000000000000000000000000",
      "type": "0x2",
      "transactionHash": "0x582669ea0dec0467bf4cd19607e58b5e4aca04726045f144ae43198bf0d9bd96",
      "transactionIndex": "0x73",
      "blockHash": "0xf87e3170dfda6c62bfce8c9dbaf878665d631b04f620169d41e692de5838de89",
      "blockNumber": "0x4bf710f",
      "gasUsed": "0xc9c4",
      "effectiveGasPrice": "0x2faf080",
      "from": "0x130151afa86cd285223f95bbc1e5aa99eef8b7f2",
      "to": "0x61cefc14ef104f149bf7c80451685f88be7c14d2",
      "contractAddress": null
    },
    {
      "status": "0x1",
      "cumulativeGasUsed": "0xe5667b",
      "logs": [],
      "logsBloom": "0x00000000000000000000000000000000000000000000000000000000000000000000000000000000000000000000000000000000000000000000000000000000000000000000000000000000000000000000000000000000000000000000000000000000000000000000000000000000000000000000000000000000000000000000000000000000000000000000000000000000000000000000000000000000000000000000000000000000000000000000000000000000000000000000000000000000000000000000000000000000000000000000000000000000000000000000000000000000000000000000000000000000000000000000000000000000",
      "type": "0x2",
      "transactionHash": "0x69272fa4534cb64d27e67ece604269f2b29dae75ebccf1e11089146aabc32b1a",
      "transactionIndex": "0x4a",
      "blockHash": "0x41700273c450f53374e4861e26ad6780a7a00bb75d9b0f32807c26d782d84ed2",
      "blockNumber": "0x4bf7112",
      "gasUsed": "0x1d412",
      "effectiveGasPrice": "0x2faf080",
      "from": "0x130151afa86cd285223f95bbc1e5aa99eef8b7f2",
      "to": "0x61cefc14ef104f149bf7c80451685f88be7c14d2",
      "contractAddress": null
    }
  ],
  "libraries": [],
  "pending": [],
  "returns": {},
  "timestamp": 1770390403449,
  "chain": 56,
  "commit": "f3ffc72"
}