{
  "transactions": [
    {
      "hash": "0x22b4e05692f7056b52bb7504de5e6710cd7988ffaa5813d8888badddfbce510f",
      "transactionType": "CALL",
      "contractName": null,
      "contractAddress": "0x61cefc14ef104f149bf7c80451685f88be7c14d2",
      "function": "setFeeReceiver(address)",
      "arguments": [
        "0x4f8Db8C9aaDd66E8C107168617346ED86Af4E494"
      ],
      "transaction": {
        "from": "0x130151afa86cd285223f95bbc1e5aa99eef8b7f2",
        "to": "0x61cefc14ef104f149bf7c80451685f88be7c14d2",
        "gas": "0xba7d",
        "value": "0x0",
        "input": "0xefdcd9740000000000000000000000004f8db8c9aadd66e8c107168617346ed86af4e494",
        "nonce": "0x17f2",
        "chainId": "0x38"
      },
      "additionalContracts": [],
      "isFixedGasLimit": false
    },
    {
      "hash": "0xc0e2be48f188b115080210cfa99f85ebce6766f1943722b098e4b7048b6b8e86",
      "transactionType": "CALL",
      "contractName": null,
      "contractAddress": "0x61cefc14ef104f149bf7c80451685f88be7c14d2",
      "function": "setFeeReceiver(address)",
      "arguments": [
        "0x4f8Db8C9aaDd66E8C107168617346ED86Af4E494"
      ],
      "transaction": {
        "from": "0x130151afa86cd285223f95bbc1e5aa99eef8b7f2",
        "to": "0x61cefc14ef104f149bf7c80451685f88be7c14d2",
        "gas": "0xab61",
        "value": "0x0",
        "input": "0xefdcd9740000000000000000000000004f8db8c9aadd66e8c107168617346ed86af4e494",
        "nonce": "0x17f3",
        "chainId": "0x38"
      },
      "additionalContracts": [],
      "isFixedGasLimit": false
    }
  ],
  "receipts": [
    {
      "status": "0x1",
      "cumulativeGasUsed": "0xc168c8",
      "logs": [],
      "logsBloom": "0x00000000000000000000000000000000000000000000000000000000000000000000000000000000000000000000000000000000000000000000000000000000000000000000000000000000000000000000000000000000000000000000000000000000000000000000000000000000000000000000000000000000000000000000000000000000000000000000000000000000000000000000000000000000000000000000000000000000000000000000000000000000000000000000000000000000000000000000000000000000000000000000000000000000000000000000000000000000000000000000000000000000000000000000000000000000",
      "type": "0x2",
      "transactionHash": "0x22b4e05692f7056b52bb7504de5e6710cd7988ffaa5813d8888badddfbce510f",
      "transactionIndex": "0x61",
      "blockHash": "0xf9bce4528018f508c86675b98e772d2954a75cb66feacdd43711896502f72a7e",
      "blockNumber": "0x4d6c65b",
      "gasUsed": "0x8704",
      "effectiveGasPrice": "0x2faf080",
      "from": "0x130151afa86cd285223f95bbc1e5aa99eef8b7f2",
      "to": "0x61cefc14ef104f149bf7c80451685f88be7c14d2",
      "contractAddress": null
    },
    {
      "status": "0x1",
      "cumulativeGasUsed": "0x893bd2",
      "logs": [],
      "logsBloom": "0x00000000000000000000000000000000000000000000000000000000000000000000000000000000000000000000000000000000000000000000000000000000000000000000000000000000000000000000000000000000000000000000000000000000000000000000000000000000000000000000000000000000000000000000000000000000000000000000000000000000000000000000000000000000000000000000000000000000000000000000000000000000000000000000000000000000000000000000000000000000000000000000000000000000000000000000000000000000000000000000000000000000000000000000000000000000",
      "type": "0x2",
      "transactionHash": "0xc0e2be48f188b115080210cfa99f85ebce6766f1943722b098e4b7048b6b8e86",
      "transactionIndex": "0x4a",
      "blockHash": "0x8ed073bc855de9ca77927e95f60f0b05f2b379441328376ba8510027b8e6261c",
      "blockNumber": "0x4d6c65e",
      "gasUsed": "0x7c14",
      "effectiveGasPrice": "0x2faf080",
      "from": "0x130151afa86cd285223f95bbc1e5aa99eef8b7f2",
      "to": "0x61cefc14ef104f149bf7c80451685f88be7c14d2",
      "contractAddress": null
    }
  ],
  "libraries": [],
  "pending": [],
  "returns": {},
  "timestamp": 1771078661904,
  "chain": 56,
  "commit": "f02ef1e"
}