{
  "transactions": [
    {
      "hash": "0x4ffefa1d78a2752f1a232d75609c4903c661de33e70ac0a1d86ff69edfde5228",
      "transactionType": "CALL",
      "contractName": null,
      "contractAddress": "0x61cefc14ef104f149bf7c80451685f88be7c14d2",
      "function": "setFeeReceiver(address)",
      "arguments": [
        "0xDc2073BaB1c4224F958589c46D53347125C8D7Ae"
      ],
      "transaction": {
        "from": "0x130151afa86cd285223f95bbc1e5aa99eef8b7f2",
        "to": "0x61cefc14ef104f149bf7c80451685f88be7c14d2",
        "gas": "0xba7d",
        "value": "0x0",
        "input": "0xefdcd974000000000000000000000000dc2073bab1c4224f958589c46d53347125c8d7ae",
        "nonce": "0x1657",
        "chainId": "0x38"
      },
      "additionalContracts": [],
      "isFixedGasLimit": false
    },
    {
      "hash": "0x95e319c8fa6d1ca91ca544e7e1a7a1ab907ef57be607fe81b99b4702289d14a0",
      "transactionType": "CALL",
      "contractName": null,
      "contractAddress": "0x61cefc14ef104f149bf7c80451685f88be7c14d2",
      "function": "setSwapConfig(address,address[])",
      "arguments": [
        "0x10ED43C718714eb63d5aA57B78B54704E256024E",
        "[0x55d398326f99059fF775485246999027B3197955, 0xb531613381ccE69DACdfe3693570f8cbf8BDA81f]"
      ],
      "transaction": {
        "from": "0x130151afa86cd285223f95bbc1e5aa99eef8b7f2",
        "to": "0x61cefc14ef104f149bf7c80451685f88be7c14d2",
        "gas": "0xf5cd",
        "value": "0x0",
        "input": "0x30b376de00000000000000000000000010ed43c718714eb63d5aa57b78b54704e256024e0000000000000000000000000000000000000000000000000000000000000040000000000000000000000000000000000000000000000000000000000000000200000000000000000000000055d398326f99059ff775485246999027b3197955000000000000000000000000b531613381cce69dacdfe3693570f8cbf8bda81f",
        "nonce": "0x1658",
        "chainId": "0x38"
      },
      "additionalContracts": [],
      "isFixedGasLimit": false
    },
    {
      "hash": "0xbf1afa35e08129ac99176bf6ec2165a33b57e2b6ff4f72a167670482139c0dfe",
      "transactionType": "CALL",
      "contractName": null,
      "contractAddress": "0x61cefc14ef104f149bf7c80451685f88be7c14d2",
      "function": "setFeeReceiver(address)",
      "arguments": [
        "0xDc2073BaB1c4224F958589c46D53347125C8D7Ae"
      ],
      "transaction": {
        "from": "0x130151afa86cd285223f95bbc1e5aa99eef8b7f2",
        "to": "0x61cefc14ef104f149bf7c80451685f88be7c14d2",
        "gas": "0xab61",
        "value": "0x0",
        "input": "0xefdcd974000000000000000000000000dc2073bab1c4224f958589c46d53347125c8d7ae",
        "nonce": "0x1659",
        "chainId": "0x38"
      },
      "additionalContracts": [],
      "isFixedGasLimit": false
    },
    {
      "hash": "0xcd3b13ad4f7ecea760c3b4a6e2f3dcbcdbab8d9ec2944ef865e95ad2b82eb8c4",
      "transactionType": "CALL",
      "contractName": null,
      "contractAddress": "0x61cefc14ef104f149bf7c80451685f88be7c14d2",
      "function": "setSwapConfig(address,address[])",
      "arguments": [
        "0x10ED43C718714eb63d5aA57B78B54704E256024E",
        "[0x55d398326f99059fF775485246999027B3197955, 0xb531613381ccE69DACdfe3693570f8cbf8BDA81f]"
      ],
      "transaction": {
        "from": "0x130151afa86cd285223f95bbc1e5aa99eef8b7f2",
        "to": "0x61cefc14ef104f149bf7c80451685f88be7c14d2",
        "gas": "0xe5ce",
        "value": "0x0",
        "input": "0x30b376de00000000000000000000000010ed43c718714eb63d5aa57b78b54704e256024e0000000000000000000000000000000000000000000000000000000000000040000000000000000000000000000000000000000000000000000000000000000200000000000000000000000055d398326f99059ff775485246999027b3197955000000000000000000000000b531613381cce69dacdfe3693570f8cbf8bda81f",
        "nonce": "0x165a",
        "chainId": "0x38"
      },
      "additionalContracts": [],
      "isFixedGasLimit": false
    }
  ],
  "receipts": [
    {
      "status": "0x1",
      "cumulativeGasUsed": "0xfd088d",
      "logs": [],
      "logsBloom": "0x00000000000000000000000000000000000000000000000000000000000000000000000000000000000000000000000000000000000000000000000000000000000000000000000000000000000000000000000000000000000000000000000000000000000000000000000000000000000000000000000000000000000000000000000000000000000000000000000000000000000000000000000000000000000000000000000000000000000000000000000000000000000000000000000000000000000000000000000000000000000000000000000000000000000000000000000000000000000000000000000000000000000000000000000000000000",
      "type": "0x2",
      "transactionHash": "0x4ffefa1d78a2752f1a232d75609c4903c661de33e70ac0a1d86ff69edfde5228",
      "transactionIndex": "0x4f",
      "blockHash": "0x3decb1a3a413570936faf3e32e54eae81f1e3c64e50bef599a825335fd685b36",
      "blockNumber": "0x4c760b3",
      "gasUsed": "0x8704",
      "effectiveGasPrice": "0x2faf080",
      "from": "0x130151afa86cd285223f95bbc1e5aa99eef8b7f2",
      "to": "0x61cefc14ef104f149bf7c80451685f88be7c14d2",
      "contractAddress": null
    },
    {
      "status": "0x1",
      "cumulativeGasUsed": "0x4415ba",
      "logs": [],
      "logsBloom": "0x00000000000000000000000000000000000000000000000000000000000000000000000000000000000000000000000000000000000000000000000000000000000000000000000000000000000000000000000000000000000000000000000000000000000000000000000000000000000000000000000000000000000000000000000000000000000000000000000000000000000000000000000000000000000000000000000000000000000000000000000000000000000000000000000000000000000000000000000000000000000000000000000000000000000000000000000000000000000000000000000000000000000000000000000000000000",
      "type": "0x2",
      "transactionHash": "0x95e319c8fa6d1ca91ca544e7e1a7a1ab907ef57be607fe81b99b4702289d14a0",
      "transactionIndex": "0x2e",
      "blockHash": "0x8a453187751e27e9238116d212811da04f89484cb9267bda72b12f0acddc2354",
      "blockNumber": "0x4c760b6",
      "gasUsed": "0xa812",
      "effectiveGasPrice": "0x2faf080",
      "from": "0x130151afa86cd285223f95bbc1e5aa99eef8b7f2",
      "to": "0x61cefc14ef104f149bf7c80451685f88be7c14d2",
      "contractAddress": null
    },
    {
      "status": "0x1",
      "cumulativeGasUsed": "0x12a43b3",
      "logs": [],
      "logsBloom": "0x00000000000000000000000000000000000000000000000000000000000000000000000000000000000000000000000000000000000000000000000000000000000000000000000000000000000000000000000000000000000000000000000000000000000000000000000000000000000000000000000000000000000000000000000000000000000000000000000000000000000000000000000000000000000000000000000000000000000000000000000000000000000000000000000000000000000000000000000000000000000000000000000000000000000000000000000000000000000000000000000000000000000000000000000000000000",
      "type": "0x2",
      "transactionHash": "0xbf1afa35e08129ac99176bf6ec2165a33b57e2b6ff4f72a167670482139c0dfe",
      "transactionIndex": "0x51",
      "blockHash": "0x0b183fb45d53049b5cd5150cb219318c19f95f079d1ddbe17c985ed29bd83dfa",
      "blockNumber": "0x4c760ba",
      "gasUsed": "0x7c14",
      "effectiveGasPrice": "0x2faf080",
      "from": "0x130151afa86cd285223f95bbc1e5aa99eef8b7f2",
      "to": "0x61cefc14ef104f149bf7c80451685f88be7c14d2",
      "contractAddress": null
    },
    {
      "status": "0x1",
      "cumulativeGasUsed": "0x11b001e",
      "logs": [],
      "logsBloom": "0x00000000000000000000000000000000000000000000000000000000000000000000000000000000000000000000000000000000000000000000000000000000000000000000000000000000000000000000000000000000000000000000000000000000000000000000000000000000000000000000000000000000000000000000000000000000000000000000000000000000000000000000000000000000000000000000000000000000000000000000000000000000000000000000000000000000000000000000000000000000000000000000000000000000000000000000000000000000000000000000000000000000000000000000000000000000",
      "type": "0x2",
      "transactionHash": "0xcd3b13ad4f7ecea760c3b4a6e2f3dcbcdbab8d9ec2944ef865e95ad2b82eb8c4",
      "transactionIndex": "0xa9",
      "blockHash": "0x98e3e2b688a0a84afa7107c1bba2c92486e1b97cb1891743742ee503e9de6563",
      "blockNumber": "0x4c760bc",
      "gasUsed": "0x9d22",
      "effectiveGasPrice": "0x2faf080",
      "from": "0x130151afa86cd285223f95bbc1e5aa99eef8b7f2",
      "to": "0x61cefc14ef104f149bf7c80451685f88be7c14d2",
      "contractAddress": null
    }
  ],
  "libraries": [],
  "pending": [],
  "returns": {},
  "timestamp": 1770624493009,
  "chain": 56,
  "commit": "890bf99"
}